:020000040800F2
:100000000000052045B80008BD150008BF15000810
:10001000C1150008C3150008C51500080000000040
:10002000000000000000000000000000B1A1000876
:10003000C71500080000000051A20008B5A2000882
:1000400095B8000895B8000895B8000895B800085C
:1000500095B8000895B8000895B8000895B800084C
:1000600095B8000895B8000895B8000895B800083C
:1000700095B8000895B8000895B8000895B800082C
:1000800095B8000895B8000895B8000895B800081C
:1000900095B8000895B8000895B8000895B800080C
:1000A00095B8000895B8000895B8000895B80008FC
:1000B00095B8000895B8000895B8000895B80008EC
:1000C00095B8000895B8000895B8000895B80008DC
:1000D00095B8000895B8000895B8000895B80008CC
:1000E00095B8000895B8000895B8000895B80008BC
:1000F00095B8000895B8000895B8000895B80008AC
:1001000095B8000895B8000895B8000895B800089B
:1001100095B8000895B80008C915000895B80008FA
:1001200095B8000895B8000895B8000895B800087B
:1001300095B8000895B8000895B8000895B800086B
:1001400095B8000895B8000895B80008D9150008BA
:1001500095B8000895B8000895B8000895B800084B
:1001600095B8000895B8000895B8000895B800083B
:1001700095B8000895B8000895B800080000000080
:1001800095B8000895B8000895B8000895B800081B
:1001900095B8000895B8000895B8000895B800080B
:1001A000E915000895B80008F915000895B8000889
:1001B00095B8000895B8000895B8000895B80008EB
:0801C00095B8000895B800088D
:1001D0000348044B834202D0034B03B118477047D6
:1001E000940000209400002000000000054806490B
:1001F000091A891001EBD171491002D0034B03B1E8
:100200001847704794000020940000200000000070
:1002100010B5064C237843B9FFF7DAFF044B13B14E
:100220000448AFF300800123237010BD9400002028
:100230000000000098B8000808B5044B1BB1044941
:100240000448AFF30080BDE80840CFE7000000009D
:100250009800002098B8000870B50D4E0D4D761B23
:10026000B61006D00024013455F8043B9847A64246
:10027000F9D1094E094D761B0BF00EFBB61006D0D6
:100280000024013455F8043B9847A642F9D170BDCB
:10029000C0B90008C0B90008C4B90008C0B9000856
:1002A000024B0146186800F043B900BF000000206F
:1002B000024B0146186800F0E7B800BF00000020BC
:1002C000844641EA000313F003036DD1403A41D361
:1002D00051F8043B40F8043B51F8043B40F8043B20
:1002E00051F8043B40F8043B51F8043B40F8043B10
:1002F00051F8043B40F8043B51F8043B40F8043B00
:1003000051F8043B40F8043B51F8043B40F8043BEF
:1003100051F8043B40F8043B51F8043B40F8043BDF
:1003200051F8043B40F8043B51F8043B40F8043BCF
:1003300051F8043B40F8043B51F8043B40F8043BBF
:1003400051F8043B40F8043B51F8043B40F8043BAF
:10035000403ABDD2303211D351F8043B40F8043B4F
:1003600051F8043B40F8043B51F8043B40F8043B8F
:1003700051F8043B40F8043B103AEDD20C3205D35F
:1003800051F8043B40F8043B043AF9D2043208D057
:10039000D2071CBF11F8013B00F8013B01D30B88C9
:1003A00003806046704700BF082A13D38B078DD0A7
:1003B00010F003038AD0C3F10403D21ADB071CBF79
:1003C00011F8013B00F8013B80D331F8023B20F8E3
:1003D000023B7BE7043AD9D3013A11F8013B00F81C
:1003E000013BF9D20B7803704B7843708B788370A4
:1003F00060467047F0B4860743D0541E002A3ED0B2
:10040000CAB2034602E014F1FF3438D303F8012BDB
:100410009D07F8D1032C2BD9CDB245EA05250F2C29
:1004200045EA054516D9A4F110073F0903F1200656
:1004300006EB071603F1100242E9045542E90255A2
:100440001032B242F8D104F00F040137032C03EB51
:1004500007130DD91E462246043A032A46F8045BC8
:10046000FAD8221F22F003020432134404F00304DA
:100470002CB1C9B21C4403F8011B9C42FBD1F0BC57
:10048000704714460346C5E779B338B551F8043CC4
:100490000C1F002BB8BFE418054600F0BFF8234B33
:1004A0001A682AB1A2420DD921686018824230D060
:1004B000626028461C60BDE8384000F0B1B8A34235
:1004C00003D81A465368002BF9D111685018A0427E
:1004D00013D00BD821686018834220D06360546029
:1004E0002846BDE8384000F09BB870470C232B60CD
:1004F0002846BDE8384000F093B820680144501801
:1005000083421160ECD1D3E90003014453601160D0
:10051000E6E7D2E90002014462602160C9E7D3E95D
:1005200000030144636021605460D9E7B0000020FB
:10053000F8B5CD1C25F0030508350C2D38BF0C256A
:10054000002D06463ADBA94238D82A4F00F066F85B
:100550003A6852B113685B1B04D433E023685B1B19
:1005600025D522465468002CF8D1796800293BD063
:100570002946304600F040F8431C2AD0C41C24F021
:100580000304A04205D0211A304600F035F80130AE
:100590001FD02560304600F043F804F10B0020F036
:1005A0000700231DC31A01D05A42E250F8BD0B2B9D
:1005B0000BD8A24215D063685360EBE70C2333607D
:1005C0000020F8BD0B2B0BD9144623601C4425607A
:1005D000E0E70C233046336000F022F80020F8BD3D
:1005E00054683C601446D5E7304600F005F8786062
:1005F000BEE700BFB000002038B5074C0023054619
:100600000846236000F00EF8431C00D038BD236874
:10061000002BFBD02B6038BDB8970020704700BF7F
:10062000704700BF044A05491368002B08BF0B46FA
:100630001844106018467047B8000020C09700208A
:1006400053B94AB9002908BF00281CBF4FF0FF3139
:100650004FF0FF3000F072B9ADF1080C6DE904CE37
:1006600000F006F8DDF804E0DDE9022304B070478D
:100670002DE9F047089E04468846002B4BD18A425C
:10068000154667D9B2FA82F24AB1C2F1200701FADF
:1006900002F320FA07F7954047EA030894404FEA2F
:1006A000154E230CB8FBFEF71FFA85FC0EFB1788CE
:1006B00043EA084307FB0CF1994209D9EB1807F10B
:1006C000FF3080F01B81994240F21881023F2B4499
:1006D0005B1AA4B2B3FBFEF00EFB103344EA0344F2
:1006E00000FB0CFCA44509D92C1900F1FF3380F064
:1006F0000781A44540F2048102382C4440EA0740B7
:10070000A4EB0C0400271EB1D4400023C6E900432B
:100710003946BDE8F0878B4209D9002E00F0EB8006
:100720000027C6E9000138463946BDE8F087B3FA2C
:1007300083F7002F47D18B4202D3824200F2FA8026
:10074000841A61EB030301209846002EE0D0C6E92D
:100750000048DDE702B9FFDEB2FA82F2002A40F07B
:100760008F80491B4FEA154E1FFA85F80127B1FB10
:10077000FEFC230C0EFB1C1143EA014308FB0CF1A9
:10078000994207D9EB180CF1FF3002D2994200F2DE
:10079000CD808446591AA3B2B1FBFEF00EFB1014B3
:1007A00043EA044408FB00F8A04507D92C1900F1DE
:1007B000FF3302D2A04500F2B6801846A4EB08042D
:1007C00040EA0C409FE7C7F1200CBB4022FA0CFE28
:1007D0004EEA030E01FA07F420FA0CF521FA0CF3A5
:1007E0004FEA1E482543B3FBF8F92C0C08FB1933DC
:1007F0001FFA8EFA44EA034309FB0AF49C4202FA08
:1008000007F200FA07F10BD91EEB030309F1FF30E1
:1008100080F087809C4240F28480A9F102097344F1
:100820001B1BADB2B3FBF8F008FB103345EA0344E1
:1008300000FB0AFAA24508D91EEB040400F1FF33BD
:100840006BD2A24569D90238744440EA0940A0FB42
:100850000289A4EB0A044C45C2464B4654D351D0FE
:10086000002E69D0B1EB0A0564EB030404FA0CFC1A
:10087000FD40FC404CEA0505C6E90054002747E767
:10088000C2F1200320FA03F7954001FA02F021FAA1
:1008900003F34FEA154E3843010CB3FBFEF71FFA82
:1008A00085F80EFB173341EA034107FB08F38B423F
:1008B00004FA02F407D9691807F1FF3C2FD28B42E2
:1008C0002DD9023F2944CB1A81B2B3FBFEF00EFBB7
:1008D000103341EA034100FB08F38B4207D9691842
:1008E00000F1FF3C17D28B4215D902382944C91AAE
:1008F00040EA07473BE73746304609E70746E7E661
:100900001846FBE64145ABD2B8EB020A69EB0E0292
:1009100001381346A4E76046E9E7184695E76746BD
:10092000D1E781467CE702382C4447E7ACF1020C62
:100930002B442FE7384608E73746E9E6704700BF03
:10094000054B064A1A6000225A609A60DA601A6102
:100950005A619A61704700BF34870020002C014023
:100960002DE9F04F91B000240B940C940D940E944B
:100970000F94994B1A6B42F010021A631A6B02F033
:1009800010020092009A1A6B42F040021A631A6B2E
:1009900002F040020192019A1A6B42F002021A63BD
:1009A0001A6B02F002020292029A1A6B42F00802DB
:1009B0001A631A6B02F008020392039A1A6B42F050
:1009C00004021A631A6B02F004020492049A1A6B6E
:1009D00042F001021A631A6B02F001020592059AB5
:1009E0001A6B42F400721A631A6B02F400720692D8
:1009F000069A1A6B42F480721A631A6B02F48072C0
:100A00000792079A1A6B42F480621A631A6B02F417
:100A100080620892089A1A6B42F020021A631A6BDD
:100A200002F020020992099A1A6B42F080021A63BE
:100A30001B6B03F080030A930A9B01222021674865
:100A400004F0C5F822460C21654804F0C0F80122E4
:100A50000821644804F0BBF801224FF4805160483B
:100A600004F0B5F822464FF400515F4804F0AFF8A7
:100A70002246C8215D4804F0AAF84FF0080ACDF8D4
:100A80002CA00C940D940BA9594803F0ABFF43F62E
:100A900023430B934FF00208CDF830800D940327C9
:100AA0000E970A260F960BA9524803F09BFF4FF4AE
:100AB00080530B930C940D940BA94F4803F092FFB5
:100AC00040230B93DFF83CB1CDF830B00D940BA967
:100AD000424803F087FF20230B9301250C950D94CA
:100AE0000E940BA93D4803F07DFF41F20C030B93DC
:100AF0000C950D940E940BA9394803F073FF4FF435
:100B00000059CDF82C900C940D940BA93B4803F0A0
:100B100069FFCDF82CA00C950D940E940BA93148CB
:100B200003F060FF4FF0100ACDF82CA00C940D9448
:100B30000BA92A4803F056FF48F204030B930C94C8
:100B40000D940BA9284803F04DFFCDF82C900C957F
:100B50000D940E940BA9244803F044FFCDF82C907B
:100B6000CDF830B00D940BA91D4803F03BFFCDF834
:100B70002CA0CDF830800D940E970F960BA91A4833
:100B800003F030FFC8230B930C950D940E940BA922
:100B9000164803F027FF05230B93CDF830800D9402
:100BA0000E970F960BA9154803F01CFF04230B9317
:100BB0000C940D940BA90D4803F014FF28230B93FC
:100BC000CDF830800D940E970F960BA90C4803F0CA
:100BD00009FF11B0BDE8F08F00380240000C024060
:100BE0000020024000280240001C02400018024081
:100BF00000100240000402400024024000080240AD
:100C0000000002400000121070B584B0002500956D
:100C1000019502950395104C104B23604FF48033DF
:100C20006360A5602561A56184F82050E5620C4BE6
:100C3000A362E5600126E66184F8305066612046D3
:100C400004F03AFA0423009301960295694620467F
:100C500004F05EFA04B070BDE0880020002201407C
:100C60000100000F08B50648064B0360002303711E
:100C70004371436183610123036204F02FFB08BDCC
:100C8000108700200030024008B50948094B036076
:100C9000002343608360C360036143618361036237
:100CA00043628362C362036304F08EFB08BD00BF2E
:100CB000288900200000055008B50E480E4B03603F
:100CC000012343600023038242691370426980213B
:100CD00051704269E12191704269D3704269137188
:100CE000426953718361C3614FF40003036204F0EE
:100CF00005FE08BDCC8B00200080024038B50D4CAD
:100D00000D4B23600D4B63600025A5600123E3605C
:100D100025616561A561E5612562204604F07AF8E8
:100D20002946204604F0D4F82946204604F0FEF86F
:100D300038BD00BFC486002000540040FFEAC00058
:100D400038B50D4C0D4B23600D4B63600025A5603D
:100D50000123E36025616561A561E56125622046A7
:100D600004F058F82946204604F0B2F829462046F7
:100D700004F0DCF838BD00BF04850020005C0040B2
:100D8000FFEAC00008B50848084B0360FF23436032
:100D9000012282600023C360026143618361C361F9
:100DA000036205F085F908BD148C0020001000A036
:100DB00070B592B000240C940D940E940F9410947E
:100DC00011940B942C2221466846FFF713FB284D03
:100DD000284B2B606C607F23AB60FF23EB602C61A2
:100DE0006C61AC61284605F0F5F98DF830408DF85E
:100DF00031408DF832401094119401220CA92846FC
:100E000005F046FA01268DF82C608DF82D608DF8DE
:100E10002E608DF82F4032460BA9284605F0B8FA0F
:100E20008DF800408DF801408DF802400194049443
:100E300005940694079408948DF824604FF4807309
:100E40000A9332466946284605F010FB8DF8246067
:100E50004FF400730A9332466946284605F006FBB4
:100E600002222146284605F0B1FB12B070BD00BF3A
:100E7000F889002000280040F8B51E481E4B03608A
:100E8000002404634460402747638463C463846030
:100E9000046144618461194BC361C460446284622B
:100EA000C46208260664012545648464C46404653C
:100EB00044658465C565046605F0D8FB1048114B90
:100EC000036004630323436047638463C4638560F2
:100ED00004618461C46044628462C46206644564DF
:100EE0008464C464046544658465C565046605F06E
:100EF000BDFBF8BD40860020045C014000EE02000E
:100F00007C840020245C014008B509484FF0402350
:100F10000360002343608360C360036143618361B6
:100F2000C36103624362836206F05AFD08BD00BFDD
:100F3000F485002008B50E480E4B03604FF4827311
:100F40004360002383604FF44072C26003614361D9
:100F50004FF400728261C3610362436283620722BD
:100F6000C26203630823436306F072FD08BD00BF3D
:100F7000508500200038004030B589B0002404942A
:100F80000594069407940194029403940D4D0E4B1E
:100F90002B606C60AC60EC602C616C61AC612846CD
:100FA00007F03CF84FF48053049304A9284607F057
:100FB00045F901940294039401A9284607F0ACF97D
:100FC00009B030BDB48500200004014030B59BB0AD
:100FD0000024169417941894199413941494159447
:100FE0000C940D940E940F941094119412942C223E
:100FF000214601A8FFF7FEF9204D214B2B606C60C4
:10100000AC60EC602C616C61AC61284607F006F8BE
:101010004FF48053169316A9284607F00FF9284677
:1010200007F015F813941494159413A9284607F0A3
:1010300073F960230C930D940E940F9410941194F3
:10104000129422460CA9284607F052F80194029403
:101050000394049405944FF4005306930794089462
:101060004FF0007309930A940B9401A9284607F0E6
:10107000A3F9284600F06EFF1BB030BD188A00208F
:101080000000014030B58FB000240A940B940C94FA
:101090000D94079408940994009401940294039485
:1010A000049405940694154D4FF080432B606C60BA
:1010B000AC60EC602C61AC61284606F0AFFF4FF4E9
:1010C00080530A930AA9284607F0B8F8284606F084
:1010D000BEFF0794099407A9284607F01DF960236D
:1010E000009301940294049422466946284606F02F
:1010F000FFFF284600F02EFF0FB030BD188B0020F8
:1011000030B58FB000240A940B940C940D9407947E
:10111000089409940094019402940394049405940F
:101120000694154D154B2B606C60AC60EC602C6127
:10113000AC61284606F072FF4FF480530A930AA967
:10114000284607F07BF8284606F081FF07940994AB
:1011500007A9284607F0E0F8602300930194029461
:10116000049422466946284606F0C2FF284600F04D
:10117000F1FE0FB030BD00BFF88700200004004032
:1011800030B58FB000240A940B940C940D940794FE
:10119000089409940094019402940394049405948F
:1011A0000694154D154B2B606C60AC60EC602C61A7
:1011B000AC61284606F032FF4FF480530A930AA927
:1011C000284607F03BF8284606F041FF07940994AB
:1011D00007A9284607F0A0F8602300930194029421
:1011E00004940C226946284606F082FF284600F047
:1011F000B1FE0FB030BD00BFB8870020000C00402A
:1012000030B589B0002401940294039404940594A9
:10121000069407940C4D0D4B2B606C60AC60EC6039
:101220002C61AC61284606F012FF60230193029402
:1012300003940594224601A9284606F059FF284642
:1012400000F088FE09B030BD588B00200018004027
:1012500008B50948094B03604FF4E13343600023AC
:101260008360C36003610C2242618361C3610362D6
:10127000436207F07AFB08BD788900200010014026
:1012800008B50948094B03604FF4E133436000237C
:101290008360C36003610C2242618361C3610362A6
:1012A000436207F062FB08BD588A00200014014029
:1012B00010B5094C094B236000236360A360E36011
:1012C000A362E36223636363204604F0CDF8012147
:1012D000204604F097F910BDD88A002000B00240E3
:1012E00000B589B01348144B03600023436083604A
:1012F0000421C16010220261402242614FF4C07299
:101300008261C3614FF4006202624FF48052426214
:101310008362022301930722029203910492032223
:10132000059206930793694404F098FC09B05DF8B0
:1013300004FB00BF988B0020400100A030B58FB0A7
:101340003422002101A8FFF755F8244C244B2360D8
:1013500000256560A560E560256128236361092398
:10136000A3613523E3610B23236240F215236362FB
:1013700040F21B13A36240F23523E36240F21D13D7
:10138000236384F8345084F8355084F8365020466E
:1013900004F04EFD01954FF4F072029203954FF464
:1013A0008873049302210591FF21069107954FF45C
:1013B000C0610891072109914FF040410A910B92B9
:1013C0000C938DF834508DF835508DF836502A46F0
:1013D00001A9204604F016FE0FB030BD3888002069
:1013E0000068014008B501F0F3F8012008F0B2FCF4
:1013F000FBE7000070B5B4B03022002128A8FEF74A
:10140000F9FF00242394249425942694279484227D
:10141000214602A8FEF7EEFF03F032FC2F4B1A6CB8
:1014200042F080521A641B6C03F080530093009BBF
:101430002B4B1A6842F440421A601B6803F4404385
:101440000193019B092328934FF4803229920126AE
:101450002D9602252E954FF480022F92192230925C
:101460004FF4C87231923295339328A802F0A6FB4C
:1014700003F00EFC0F232393249525944FF4A053DF
:1014800026934FF480532793062123A802F004FEED
:10149000144B0293642303930695049505954FF42A
:1014A000C073079305230993089503230A930B96AA
:1014B0000C964FF400330D934FF400730E93129477
:1014C000139418941B941D944FF00063219322945D
:1014D00002A802F0D9FE34B070BD00BF003802404F
:1014E000007000406848B10100B589B003F060FCAD
:1014F000FFF780FFFFF734FAFFF786FBFFF7B2FB39
:10150000FFF7C2FBFFF7D8FBFFF7F8FBFFF718FC6C
:10151000FFF738FCFFF74CFCFFF7AEFCFFF710FAC3
:10152000FFF7F2FCFFF706FDFFF750FDFFF7AAFDFE
:10153000FFF7E6FDFFF724FEFFF71EFDFFF760FE55
:10154000FFF786FEFFF79CFE01F01EF8FFF7B0FEE6
:10155000FFF7C6FEFFF7F2FE01AC084D0FCD0FC43A
:1015600095E8070084E80700002101A808F0BCFB0B
:10157000034B186008F0A0FBFEE700BFB0B80008FE
:101580000085002008B50268034B9A4200D008BDD0
:1015900003F01AFCFBE700BF0010004070477047E3
:1015A00070477047034B0360034B0B60802313604D
:1015B000704700BFBC020020BC0000207047FEE75F
:1015C000FEE7FEE7FEE7704708B5024806F0D2FBEB
:1015D00008BD00BF608C002008B5024801F052FE33
:1015E00008BD00BFF094002008B5024804F09DFC3F
:1015F00008BD00BF3888002008B5024803F064FF2A
:1016000008BD00BFD88A0020F0B587B00023019341
:1016100002930393049305932A4B1B680BB107B005
:10162000F0BD284B01221A60274B9A6B42F0010251
:101630009A639B6B03F001030093009B4FF6837347
:10164000019302260296032504950C24059401A912
:101650001E4803F0C7F948F233130193029600279E
:1016600003970495059401A9194803F0BBF94CF2BE
:1016700003730193029603970495059401A91548F5
:1016800003F0B0F94FF63F030193029603970495D8
:10169000059401A9104803F0A5F9282301930296A7
:1016A00003970495059401A90C4803F09BF90823BE
:1016B0000193029603970495059401A9084803F045
:1016C00091F9ACE7140300200038024000100240FA
:1016D00000180240000C024000140240001C0240AE
:1016E0000008024000B583B00D4B1A6C42F08052E6
:1016F0001A641A6C02F080520092009A5A6C42F4FA
:1017000080425A645B6C03F480430193019B002286
:101710000F216FF0010003F00BFB03B05DF804FB39
:101720000038024010B588B000230393049305935A
:101730000693079302681A4B9A4201D008B010BD75
:1017400003F58B335A6C42F480625A645A6C02F48B
:1017500080620092009A1A6B42F020021A631A6BA0
:1017600002F020020192019A1A6B42F001021A6300
:101770001B6B03F001030293029B4FF4F863039386
:101780000324049403A9074803F02CF901230393CD
:1017900004940023059303A9034803F023F9CDE73C
:1017A0000022014000140240000002400268094B80
:1017B0009A4200D0704782B003F500631A6B42F47E
:1017C00080521A631B6B03F480530193019B02B098
:1017D000704700BF0030024070B58CB00023079303
:1017E000089309930A930B930268394B9A4201D0EC
:1017F0000CB070BD374B5A6B42F001025A635A6B02
:1018000002F001020192019A1A6B42F010021A636F
:101810001A6B02F010020292029A1A6B42F008024E
:101820001A631A6B02F008020392039A1A6B42F0D1
:1018300040021A631A6B02F040020492049A1A6B77
:1018400042F080021A631A6B02F080020592059A38
:101850001A6B42F001021A631B6B03F0010306933B
:10186000069B60230793022608960D250B9507A972
:10187000194803F0B7F80823079308960024099441
:101880000A940B9507A9154803F0ACF84FF40073C0
:101890000793089609940A940B9507A9104803F03A
:1018A000A1F84FF4BC430793089609940A940B954A
:1018B00007A90C4803F096F850230793089609945B
:1018C0000A940B9507A9084803F08CF890E700BF2D
:1018D000000005500038024000100240000C024099
:1018E00000180240001C02400000024002680E4B3B
:1018F0009A4200D0704700B583B0A3F5F0431A6B4D
:1019000042F400021A631B6B03F400030193019B72
:10191000002205215A2003F00BFA5A2003F03AFA6C
:1019200003B05DF804FB00BF00B00240F0B58DB01D
:1019300000230793089309930A930B930268304B93
:101940009A4201D00DB0F0BDA3F590431A6B42F05E
:1019500000721A631A6B02F000720192019A1A6BFC
:1019600042F080621A631A6B02F080620292029A5D
:101970001A6B42F000621A631A6B02F00062039263
:10198000039A1A6B42F040021A631A6B02F040028B
:101990000492049A1A6B42F004021A631A6B02F062
:1019A00004020592059A1A6B42F001021A631B6B3E
:1019B00003F001030693069B4FF4D04307930226DE
:1019C000089603250A950B240B9407A90D4803F0EC
:1019D00009F8322307930896002709970A950B9474
:1019E00007A9094802F0FEFF862307930896099786
:1019F0000A950B9407A9054802F0F4FFA2E700BF7F
:101A0000008002400018024000080240000002402E
:101A100010B58AB0002305930693079308930993A2
:101A20000368264A934204D0254A934222D00AB042
:101A300010BD244C236B43F002032363236B03F09C
:101A400002030193019B4FF4407305931223069305
:101A5000012307930423099305A91B4802F0C2FF41
:101A6000236C43F400132364236C03F400130293E8
:101A7000029BDCE7134C236B43F080032363236B4F
:101A800003F080030393039B4FF4C0730593122369
:101A9000069301230793032308930423099305A9BD
:101AA0000A4802F09FFF236C43F400032364236C75
:101AB00003F400030493049BB9E700BF0054004003
:101AC000005C00400038024000040240001C02405C
:101AD00070B58CB000230793089309930A930B9376
:101AE00002683E4B9A4201D00CB070BD03F55043E2
:101AF0005A6C42F080625A645A6C02F08062019221
:101B0000019A1A6B42F010021A631A6B02F010026B
:101B10000292029A1A6B42F400721A631A6B02F470
:101B200000720392039A1A6B42F480621A631A6B72
:101B300002F480620492049A1A6B42F040021A6323
:101B40001A6B02F040020592059A1A6B42F48072F9
:101B50001A631B6B03F480730693069B1023079391
:101B6000022508950E260B9607A91D4802F03AFF9C
:101B70004EF6FF7307930895002409940A940B9678
:101B800007A9184802F02EFFF72307930895099438
:101B90000A940B9607A9144802F024FF4FF48053CF
:101BA0000793089509940A9409230B9307A90F48F2
:101BB00002F018FF4FF446430793089509940A94DE
:101BC0000B9607A90A4802F00DFF2246052158206E
:101BD00003F0AEF8582003F0DDF885E70068014017
:101BE0000010024000240240002802400018024079
:101BF000002002402DE9F0438BB0002305930693AB
:101C000007930893099302682E4B9A4202D00BB0B7
:101C1000BDE8F0832C4B9A6B42F002029A639A6BF8
:101C200002F002020192019A1A6B42F010021A634A
:101C30001A6B02F010020292029A1A6B42F0020230
:101C40001A631A6B02F002020392039A1A6B42F0B3
:101C500008021A631B6B03F008030493049B4FF004
:101C60000409CDF81490022506950324089409264A
:101C7000099605A9154802F0B5FE4023059306957F
:101C80000027079708940A230993DFF8488005A9DD
:101C9000404602F0A7FECDF81490069507970894E9
:101CA000099605A9404602F09DFE4FF46053059346
:101CB000069507970894099605A9054802F092FE33
:101CC000A5E700BF001000A000380240001002404D
:101CD000000C0240000402400268054B9A4200D00A
:101CE0007047044A136F43F400431367F8E700BFDB
:101CF000002800400038024070B588B000230393EC
:101D0000049305930693079302681E4B9A4201D0F1
:101D100008B070BD03F586335A6C42F400625A6411
:101D20005A6C02F400620092009A1A6B42F00402AC
:101D30001A631A6B02F004020192019A1A6B42F0C4
:101D400008021A631B6B03F008030293029B4FF413
:101D5000F853039302260496032506950C24079452
:101D60000DEB0401084802F03DFE042303930496A2
:101D700000230593069507940DEB0401034802F038
:101D800031FEC5E7002C014000080240000C024073
:101D900000B589B00023039304930593069307933A
:101DA0000368B3F1402F02D009B05DF804FB03F5DE
:101DB000FC331A6C42F480321A641A6C02F48032DA
:101DC0000192019A1A6B42F008021A631B6B03F02E
:101DD00008030293029B80230393022304930823A6
:101DE000079303A9014802F0FDFDDDE7000C024066
:101DF00030B589B0002303930493059306930793AA
:101E000002681C4B9A4201D009B030BD03F5003383
:101E10001A6C42F480421A641A6C02F480420092F6
:101E2000009A1A6B42F480721A631A6B02F4807281
:101E30000192019A1A6B42F002021A631B6B03F0C3
:101E400002030293029B0224039404940525079540
:101E500003A9094802F0C6FD4FF4404303930494DC
:101E6000002305930693079503A9044802F0BAFDE1
:101E7000CAE700BF003800400020024000040240D2
:101E800086B00368234A934216D0B3F1804F1FD027
:101E9000214A934228D0214A934230D0204A93428B
:101EA00014D1204B5A6C42F002025A645B6C03F06E
:101EB00002030593059B09E01A4B5A6C42F001029C
:101EC0005A645B6C03F001030193019B06B07047F9
:101ED00003F50E331A6C42F001021A641B6C03F016
:101EE00001030293029BF1E70E4B1A6C42F00202CF
:101EF0001A641B6C03F002030393039BE6E7094B90
:101F00001A6C42F008021A641B6C03F00803049375
:101F1000049BDBE70000014000040040000C00408F
:101F200000040140003802400268094B9A4200D088
:101F3000704782B003F508331A6C42F040021A640D
:101F40001B6C03F040030193019B02B0704700BF7C
:101F50000018004000B58BB000230593069307934B
:101F60000893099303683E4A93420ED0B3F1804F21
:101F700021D03C4A934235D03B4A934246D03B4A1B
:101F8000934257D00BB05DF804FB394B1A6B42F00B
:101F900001021A631B6B03F001030093009B4FF4D3
:101FA00080730593022306930123099305A9314801
:101FB00002F018FDE6E703F50E331A6B42F001025A
:101FC0001A631B6B03F001030193019B4FF4004361
:101FD0000593022306930123099305A9254802F0DE
:101FE00001FDCFE7224B1A6B42F002021A631B6B12
:101FF00003F002030293029B10230593022306932E
:10200000099305A91C4802F0EDFCBBE7184B1A6BBD
:1020100042F480721A631B6B03F480730393039B77
:102020000123059302230693099305A9134802F09F
:10203000D9FCA7E70E4B1A6B42F080021A631B6BA8
:1020400003F080030493049B40230593022306932B
:102050000923099305A90A4802F0C4FC92E700BFCE
:102060000000014000040040000C00400018004047
:1020700000380240000002400004024000200240FC
:10208000001C024030B58BB00023059306930793E4
:102090000893099303682D4A934204D02C4A934233
:1020A00034D00BB030BD2B4B5A6C42F010025A6446
:1020B0005A6C02F010020092009A1A6B42F002026F
:1020C0001A631A6B02F002020192019A1A6B42F033
:1020D00001021A631B6B03F001030293029B80232E
:1020E0000593022506950724099405A91A4802F0CC
:1020F00079FC4FF40073059306950023079308932A
:10210000099405A9154802F06DFCCAE7114B5A6CF9
:1021100042F020025A645A6C02F020020392039AA1
:102120001A6B42F004021A631B6B03F0040304935E
:10213000049BC023059302230693032308930823DB
:10214000099305A9064802F04DFCAAE700100140DA
:102150000014014000380240000402400000024028
:102160000008024008B5FFF74FFA08BD10B588B067
:1021700004460268224B9A4205D02268214B9A42BB
:102180001FD008B010BD204B1B684BB91F4A516CC3
:1021900041F400015164526C02F400020192019A70
:1021A0000133194A1360F02303930223049300239D
:1021B000059306930A23079303A9154802F012FC1E
:1021C000DBE7114B1B684BB9104A516C41F400011D
:1021D0005164526C02F400020292029A01330A4ADC
:1021E00013604FF480630393022304930023059349
:1021F00006930A23079303A9064802F0F3FBC0E7FE
:10220000045C0140245C01401803002000380240B7
:10221000002002400018024000B589B000220146AB
:10222000362002F085FD362002F0B4FD154B1A6C05
:1022300042F010021A641B6C03F010030193019B1F
:1022400002A903A802F002F801F0E0FF43000E48E3
:10225000A0FB03239B0C013B0C480D4A026040F29B
:10226000E732C260436000230361836005F0D6FE5D
:1022700018B1012009B05DF804FB044805F060FDC9
:10228000F8E700BF0038024083DE1B43608C00206B
:102290000010004008B513460A460146024804F003
:1022A000CFFF00B1012008BD3487002008B51346D8
:1022B0000A460146024805F063F800B1012008BD56
:1022C0003487002008B5034805F042FB043818BFE6
:1022D000012008BD3487002008B50146014805F0FB
:1022E000D3FA08BD3487002008B500F035F908BDE1
:1022F00000B583B001238DF8073000F037F910B92D
:1023000000238DF807309DF8070003B05DF804FB4B
:1023100010B5FFF7EDFF012802D00224204610BDC2
:10232000074805F092FA04460028F7D14FF40061FF
:10233000034805F0BBFA0028F0D00124EEE700BF07
:102340003487002008B5074B01221A70FFF7BAFF47
:1023500020B9044A137803F0FE031370014B187878
:1023600008BD00BF6400002010B584B00446184BBF
:1023700001221A7007F0A5FC18B9154B187804B0A3
:1023800010BDFFF7C5FF88B1114B1B78DBB2012BE5
:10239000F3D0104B1B687BB10E4B1B68002BECD1AC
:1023A0000B4A137843F001031370E6E72046FFF76A
:1023B000C9FF074B1870E7E7074B6C460FCB84E863
:1023C0000F000021204607F0CEFC024B1860E3E727
:1023D000640000201C030020CCB8000808B5FFF7FB
:1023E000B1FF08BD38B5054607F074FC044607F098
:1023F00071FC001BA84205D2FFF764FF0028F6D14C
:10240000002001E04FF0FF3038BD000070B584B00F
:102410000C4615461E4647F23050FFF7E3FF0028F2
:102420002ADB324629462046FFF734FF08B1012057
:1024300023E047F23052124B196801A807F0DCFC88
:10244000019B102B01D0012017E0029B012B01D032
:10245000012012E007F03EFC044607F03BFC001BA5
:1024600047F22F53984205D8FFF72CFF0028F4D1EC
:10247000002002E0012000E0012004B070BD00BF98
:102480001C03002070B584B00C4615461E4647F26A
:102490003050FFF7A7FF00282ADB324629462046A6
:1024A000FFF704FF08B1012023E047F23052124B3E
:1024B000196801A807F0A0FC019B102B01D0012096
:1024C00017E0029B022B01D0012012E007F002FC72
:1024D000044607F0FFFB001B47F22F53984205D834
:1024E000FFF7F0FE0028F4D1002002E0012000E018
:1024F000012004B070BD00BF1C030020154B1B78E9
:1025000013F0010F21D110B588B0144603291ED84D
:10251000DFE801F002050C13002008B010BD68468A
:10252000FFF7DAFE069B23600020F6E76846FFF718
:10253000D3FE079B23800020EFE76846FFF7CCFE21
:10254000079B5B0A23600020E7E703207047042015
:10255000E3E700BF6400002008B500220121024B20
:10256000186807F015FC08BD1C03002008B54FF4DF
:102570000051044802F024FB08B1002008BD0120EE
:10258000FCE700BF0008024008B50349034806F015
:1025900069FA034B187008BDA48C002074B90008B8
:1025A000A08C002004290CD0052902D0022904D0D7
:1025B0007047064B03221A707047044B02221A70B0
:1025C0007047024B01221A70F2E700BF200300207F
:1025D00008B501220B490C4808F0D4F848B90B495A
:1025E000094808F00DF938B9074808F04CF930B936
:1025F00008BDFEF7D3FFF2E7FEF7D0FFF4E7FEF7E2
:10260000CDFFF5E7A52500080C91002074000020FF
:1026100010B588B0002303930493059306930793A2
:102620000368B3F1A04F01D008B010BD184C236B64
:1026300043F001032363236B03F001030093009B2A
:102640004FF4E053039302230493032306930A23D6
:10265000079303A90F4802F0C5F9636B43F08003A9
:102660006363636B03F080030193019B636C43F42A
:1026700080436364636C03F480430293029B0022F3
:102680000521432002F054FB432002F083FBCBE7FB
:10269000003802400000024008B5D0F8C00208F03F
:1026A0009BFA08BD08B5D0F8C00208F0AEFA08BD24
:1026B00008B5D0F8C00208F0BAFA08BD08B5D0F8DD
:1026C000C00208F0D2FA08BD08B5D0F8C00208F080
:1026D0008CFA08BD08B5D0F8C00208F092FA08BD1F
:1026E00090F8CC33012B01D00020704710B5044680
:1026F0000F48C0F8C042C4F8D0034FF0A0430360B5
:10270000082383600123C3600023036102228261E6
:10271000C36100F051F940B9054800F090FE014650
:10272000204608F056FA002010BDFEF737FFF3E709
:10273000F094002008B5D0F8D00300F085FE18B161
:10274000022803D0012008BD0020FCE70220FAE7A0
:1027500008B5D0F8D00300F06CFE08BD08B5D0F87D
:10276000D00300F05FFE08BD08B590F8CC33012B14
:1027700004D0C82002F03AFB002008BD084600F053
:102780006FF8F6E710B4D0F8D03301EB8104E00025
:102790000446184490F83B0048B901EB8101C80099
:1027A000034483F8512000205DF8044B7047234414
:1027B00083F85020F7E708B502F018FB08BD18B100
:1027C000022803D002207047002070470120704784
:1027D00008B5D0F8D00300F0F8FDFFF7F0FF08BD12
:1027E00008B5D0F8D00300F006FEFFF7E8FF08BDFB
:1027F00008B5D0F8D00300F010FEFFF7E0FF08BDE9
:1028000010B584B0D0F8D003BDF8204002949DF8F4
:102810001C4001949DF81840009400F06BF8FFF7FD
:10282000CEFF04B010BD08B5D0F8D00300F0B2F868
:10283000FFF7C5FF08BD10B584B0D0F8D0039DF8F0
:1028400024400394BDF820400294079C01949DF815
:102850001840009400F0FAF8FFF7B1FF04B010BD83
:1028600008B528B100222021024802F0B0F908BDC5
:102870000122F8E7000C0240F8B50668346A04F05B
:102880000F07C4F34343C4F30A14022B2ED16CB3D5
:1028900007EB8702D3000344596C39B3054622463F
:1028A000304600F091FEBA003A44D3002B445A6CF3
:1028B00022445A64DA6C2244DA6406EB4713D3F8F4
:1028C00010150B4A0A408AB1D3F8002522F0804245
:1028D00042F00042C3F80025BB00D919CA002A44BF
:1028E00092F8503083F0010382F85030F8BD00BFF9
:1028F0000000F81FF0B585B09DF828509DF82C60B9
:10290000BDF8307090F8B842012C41D0012480F815
:10291000B8424FEA810C8C444FEACC0404444FF097
:10292000000C84F83DC084F83830A4F8407084F876
:10293000391084F83F6002F07F0C84F83AC012F03E
:10294000800F1BD101EB810C4FEACC0404444FF003
:10295000000C84F83BC0044601EB810C4FEACC002C
:10296000204480F83C50029701960095206800F0C2
:102970002FFF002384F8B83205B0F0BD01EB810CC5
:102980004FEACC0404444FF0010C84F83BC0E2E76A
:102990000220F1E790F8B832012B0BD010B50446B5
:1029A000012380F8B832006800F09BFF002084F813
:1029B000B80210BD02207047002845D0F0B58BB09A
:1029C0000646046890F8B932002B38D0032386F805
:1029D000B932E36B13F4807F01D100233361306897
:1029E00000F09AFD344654F810CB6D460FCC0FC55D
:1029F0000FCC0FC594E8030085E80300371D97E866
:102A00000E00604600F044FD0121306800F08AFDB0
:102A1000344654F810CB6D460FCC0FC50FCC0FC504
:102A200094E8030085E8030097E80E00604600F094
:102A300049FE012386F8B93200200BB0F0BD80F8C2
:102A4000B832FFF7E5FDC1E701207047F8B59DF802
:102A50001870BDF820608D000D44EC00044484F82B
:102A60003B2084F83F308FB98D000D44EC000444C6
:102A7000032584F842509DF8245084F83D50032BE0
:102A800000F29580DFE803F00A8C2E5D01EB8105F2
:102A9000EC000444022584F84250F0E7012F08BFFF
:102AA000002A40F0848036B901EB8102D300034450
:102AB000012283F8512001EB8102D300034493F8F3
:102AC00051303BB901EB8102D3000344002283F86B
:102AD00042206CE001EB8102D3000344022283F820
:102AE000422064E0B2B901EB8102D300034493F8C1
:102AF00051303BB901EB8102D3000344002283F83B
:102B0000422054E001EB8102D3000344022283F807
:102B100042204CE001EB8102D300034493F8503093
:102B20003BB901EB8102D3000344002283F8422029
:102B30003DE001EB8102D3000344022283F84220EE
:102B400035E0B2B901EB8102D300034493F8513070
:102B50003BB901EB8102D3000344002283F84220F9
:102B600025E001EB8102D3000344022283F84220D6
:102B70001DE001EB8102D300034493F850303BB9D0
:102B800001EB8102D3000344002283F842200EE0CF
:102B900001EB8102D3000344022283F8422006E0C5
:102BA00001EB8102D3000344002283F842208A0013
:102BB0005418E3000344079C5C649E64002483F87B
:102BC0005C40DC6483F8391083F85D401144CB002D
:102BD00003F13801027C0144006800F003FFF8BDF6
:102BE00030B583B005460468D4F840340193D4F876
:102BF00040340093009B23F02E030093019B13F0BD
:102C0000020F07D0019B13F0010F25D1009B43F069
:102C100002030093019B13F0080F10D0009B43F0B8
:102C200008030093019B13F0040F2DD0AB69022B16
:102C300015D0EB68012B22D02846FFF745FD019BFC
:102C400013F0200F03D0009B43F020030093009B60
:102C5000C4F8403403B030BDFFF724FDD6E7019B34
:102C600003F4C023B3F5802F04D00121286800F0BD
:102C7000C7FCE1E70221286800F0C2FCDCE74EF661
:102C80006022C4F80424D7E72846FFF723FDD6E7DF
:102C9000F8B506460D46076807EB411707F5A0642F
:102CA000A36813F0040F3FD00423A360E36843F04C
:102CB0000203E360A36813F4007F40F08180A368FF
:102CC00013F0010F00F0B68033694BB1AA002A441B
:102CD000D30033449A6C2169C1F31201521ADA64A9
:102CE000AA002A44D3003344012283F85D20002146
:102CF0009965A26093F83F30022B14BF0022012295
:102D00008B4208BF0122002A66D1032B6FD0012B12
:102D10007FD0AB005919CA00324492F8503083F08A
:102D2000010382F85030F8BDA36813F4807F06D108
:102D3000A36813F0200F14D02023A360BAE74FF448
:102D40008073A36001EB8102D3000344072283F860
:102D50005D20E36843F00203E360006800F0C1FD1A
:102D6000A8E7A36813F0080F17D1A36813F4806FC6
:102D7000A0D0E36843F00203E360006800F0B1FD17
:102D80001023A36005EB8502D3003344082283F8A7
:102D90005D204FF48063A3608CE7E36843F0020397
:102DA000E36001EB8102D3000344052283F85D2038
:102DB0001023A3600823A360006800F092FD79E768
:102DC000E36843F00203E3602946306800F089FDC0
:102DD0004FF40073A360A6E7E36843F00203E360E7
:102DE0002946306800F07DFD1023A36091E7D7F8F5
:102DF000003543F00053C7F8003505EB8502D300DA
:102E00003344012283F85C2029463046FFF756FC04
:102E10007FE7AA002A44D3003344012283F85C20D0
:102E200093F85010514083F8501029463046FFF770
:102E300045FC6EE7A36813F0020F6FD0E36823F040
:102E40000203E36005EB8502D300334493F85D3061
:102E5000012B20D0052B32D0082B18BF062B3ED1DA
:102E6000AA002A44D30033449A6D01329A65032A9A
:102E70002DD9AA002A44D300334400229A650422A3
:102E800083F85C20D7F8003523F0804343F00043FB
:102E9000C7F8003506E005EB8502D3003344012274
:102EA00083F85C200223A36005EB8502D300334442
:102EB00093F85C2029463046FFF700FC33E705EB2A
:102EC0008502D3003344052283F85C20EAE705EB52
:102ED0008502D3003344022283F85C20D2E7032B1F
:102EE0000CD0072BDED1AA002A44D30033449A6DBC
:102EF00001329A65042283F85C20D3E705EB850252
:102F0000D3003344022283F85C20D7F8003523F045
:102F1000804343F00043C7F80035C3E7A36813F0CC
:102F2000800F21D1A36813F0100F3FF4FCAE05EB26
:102F30008502D3001A46334493F83F30032B2BD03D
:102F4000022B14BF00220122002B14BF13460123C1
:102F50003BB105EB8502D300334400229A65336907
:102F60004BB31023A360DEE6E36843F00203E360A3
:102F7000AB005919CA003244916D013191652B445F
:102F8000DA003244062382F85D302946306800F0CA
:102F9000A8FC8023A360C6E605EB8502D30033447A
:102FA00000229A65E36843F00203E3602946306833
:102FB00000F097FCD5E705EB8502D30033440322EC
:102FC00083F85D20E36843F00203E360294630683C
:102FD00000F087FCC5E7F8B5036803EB411303F580
:102FE000A064A26812F0040F24D10E460546A26820
:102FF00012F0200F25D02023A36001EB8102D30023
:103000001A46034493F83D30012B19D18B0002443A
:10301000002182F83D103344DA000244022382F892
:103020005C30E36843F00203E3603146006800F07F
:1030300058FC05E00423A360E36843F00203E36067
:10304000F8BDA26812F0400F34D1A26812F4007FDC
:103050004AD1A26812F0010F51D1A26812F0080FF4
:1030600062D1A26812F0100F6FD08A000A44D30018
:10307000034400229A65032283F85D2093F83D30D3
:103080006BB901EB8102D300034493F83C3033B9B0
:1030900001EB8102D3000344012283F83D20E36861
:1030A00043F00203E3603146286800F01AFC102365
:1030B000A360C5E78B005918CA000244042182F8B6
:1030C0005D10012182F83D103344DA0002440023F0
:1030D0009365E36843F00203E3603146006800F063
:1030E00000FC4023A360ABE7E36843F00203E36026
:1030F000006800F0F6FB4FF40073A360A0E78F00B8
:103100007A18D300034400229A65E36843F002036F
:10311000E360006800F0E5FB0123A360B919C80073
:10312000284480F85D308BE70823A360E36843F010
:103130000203E360006800F0D4FB06EB8601C800E0
:103140002844052380F85D307AE7A26812F0800FEA
:1031500036D1A26812F4806F43D1A26812F0020F38
:103160003FF46EAFE26822F00202E26001EB8101FF
:10317000CA001146024492F85D20012A45D0032A74
:1031800057D0042A69D0052A6FD0082A18BF062A0A
:1031900056D1282101FB06018A6D01328A65032A76
:1031A00069D90A4600219165042182F85C10D3F8A0
:1031B000002522F0804242F00042C3F800253FE0A3
:1031C000E36843F00203E360006800F08AFB06EB6B
:1031D0008601CB002B44062283F85D208023A36068
:1031E0002EE7E36843F00203E360006800F079FB38
:1031F0001023A3604FF48063A36006EB8601CB002D
:103200002B44082283F85D201AE70B460344012271
:1032100083F85C2093F83F30023BDBB293420FD837
:103220000B46034493F8512082F0010283F85120A9
:1032300006E006EB8602D3000344022283F85C20FA
:103240000223A36006EB8602D3002B4493F85C2094
:1032500031462846FFF732FAF2E606EB8602D30043
:103260000344022283F85C20EAE7282303FB0603D9
:1032700083F85C20E4E7282202FB0602022182F8A0
:103280005C1094E7F8B504460568284600F0B4F9E8
:10329000012800D0F8BD206800F0AAF90028F9D074
:1032A000206800F0A5F910F4001F03D023684FF444
:1032B00000125A61206800F09BF910F4801F03D0BF
:1032C00023684FF480125A61206800F091F910F0E1
:1032D000806F03D023684FF080625A61206800F04D
:1032E00087F910F0020F02D0236802225A61206889
:1032F00000F07EF910F0005F08D023684FF0005214
:103300005A61D5F8403413F0010F25D0206800F041
:103310006FF910F0807F27D1206800F069F910F074
:10332000080F25D1206800F063F910F0007F26D146
:10333000206800F05DF910F0100FABD0226893699F
:1033400023F0100393612046FFF796FA22689369F1
:1033500043F0100393619DE72046FFF7A9F901218F
:10336000206800F04DF9D1E72046FFF739FCD3E79C
:103370002046FFF791F9236808225A61D2E72068B6
:1033800000F0AAFA0746002604E0F1B22046FFF753
:1033900022FE0136A368B34212D906F00F0327FAC2
:1033A00003F313F0010FF4D005EB4613D3F8003507
:1033B00013F4004FE9D0F1B22046FFF769FCE8E7CB
:1033C00023684FF000725A61B2E738B590F8B8320E
:1033D000012B0ED00446012580F8B852006800F099
:1033E00095F82946206800F04AF9002084F8B802D0
:1033F00038BD0220FCE790F8B832012B0BD010B595
:103400000446012380F8B832006800F097FB0020E2
:1034100084F8B80210BD0220704708B5006800F0BB
:103420000FF908BD01EB8101CB00184490F85C0056
:10343000704701EB8101CB001844C06C704708B5A0
:10344000006800F0C0F908BD08B5006800F0B0F9E8
:1034500008BD0000002301330C4A934211D80269D1
:10346000002AF8DA036943F0010303610023013302
:10347000064A934207D8026912F0010FF7D10020E3
:103480007047032070470320704700BF400D0300C2
:1034900084B010B5044603A880E80E00089B012BF9
:1034A0001DD1A36B23F48033A363E268164B134052
:1034B000E360E36823F44013E3600F9B012B09D022
:1034C0002046FFF7C7FF069B012B14D0BDE8104034
:1034D00004B07047E36843F48013E360F0E7E36807
:1034E00043F04003E3602046FFF7B4FFA36B43F4CF
:1034F0008033A363E7E7A36843F00603A360A368F0
:1035000043F02003A360E1E7BFFFBDFF836843F002
:103510000103836000207047836823F00103836008
:103520000020704708B5C36823F0C043C360012979
:1035300009D069B9C36843F08043C360322001F009
:1035400055FC002008BDC36843F00053C360F5E795
:103550000120F7E7890141F02001016100230133D7
:10356000054A934205D8026912F0200FF7D10020D6
:1035700070470320704700BF400D03001023036114
:1035800000230133054A934205D8026912F0100F57
:10359000F7D1002070470320704700BF400D0300A3
:1035A00070B49DF80C4064B903339D0807E000EB4C
:1035B000023303F5805351F8046B1E600134AC42B2
:1035C000F5D3002070BC7047033292080023934269
:1035D0000CD210B400F58054246841F8044B013338
:1035E0009342F7D308465DF8044B7047084670478E
:1035F0004269806910407047406900F001007047DF
:1036000010B400F58064D0F8003423F00303C0F850
:103610000034D0F8003401F003021343C0F8003442
:10362000012905D0022907D000205DF8044B70471E
:103630004BF680336360F7E741F270736360F3E742
:1036400030B583B0044600250195D0F8403401938D
:10365000019B23F02E030193019B43F48073C0F878
:103660004034642001F0C2FB019B23F48073C4F852
:1036700040340A2001F0BAFB284603B030BD82B0C6
:1036800000230193D0F840340193019B23F02E03D3
:103690000193019B13F4805F01D101290CD0019BA0
:1036A00013F4805F05D021B9019B23F48053C0F847
:1036B0004034002002B07047019B43F48053C0F8AF
:1036C0004034ECE784B038B5044605A880E80E0025
:1036D00025460023C4F8003EA36B23F40013A36324
:1036E000E36B13F4807F10D0079B012B06D0D4F836
:1036F000003423F00403C4F800340CE0D4F80034A0
:1037000043F00403C4F8003405E0D4F8003423F097
:103710000403C4F8003410212046FFF71BFF2046A5
:10372000FFF72CFF002209E005EB42134FF0FF31B9
:10373000C3F808150021C3F80C150132069B93420B
:10374000F2D801212046FFF79AFFC82001F04EFB76
:103750000023A3614FF0FF336361E36B13F4807FB9
:1037600017D04FF40073636203F18073A3620D4BB3
:10377000C4F80031089B1BB9A36943F01003A3618F
:10378000A269094B1343A3610020BDE8384004B08F
:1037900070478023636203F5C003A362034BC4F840
:1037A0000031E7E70003E000080020A3E00040004C
:1037B00082B000230193D0F8403401930198C0F304
:1037C000414002B0704700F58060806880B2704769
:1037D000F0B506469DF8184000EB411505F5A060D0
:1037E0004FF0FF378760032C65D8DFE804F00256FE
:1037F000021840F29D47C76012F0800F09D1F76BA5
:1038000017F4807F59D0C76847F06007C760002071
:103810000CE0C76847F48077C760002006E040F2FC
:103820009D67C76012F0800F31D1002006F5806ED1
:10383000D6F8187401F00F014FF0010C0CFA01F1E9
:103840003943C6F81814B16941F00071B16112F042
:10385000800F34D100269DF81410022932D00021A7
:103860009B0503F0FE53D20202F4F0421343A2047C
:1038700002F440221343BDF81C20C2F30A02134392
:1038800033430B43C5F80035032C1ED0F0BDC76889
:1038900047F48077C7600020C8E740F22527C7605B
:1038A00012F0800F01D10020C0E7C76847F4C0774D
:1038B000C7600020BAE70120B8E70020B6E74FF460
:1038C0000046C8E74FF40031CAE7D5F8003543F0A9
:1038D0000053C5F80035D9E700F58060406980B233
:1038E000704710B400EB411101F5A062D1F800352A
:1038F000C3F38143022B14BF00240124002B14BF07
:10390000234601235BB3D1F8003543F08043C1F86F
:103910000035C36A13F47F0F1AD1D1F8003523F0B4
:103920000043C1F80035D1F8003543F00043C1F839
:103930000035D1F8003523F40043C1F800350023E9
:103940000133B3F57A7F36D811680029F8DB32E00D
:10395000D1F8003543F00043C1F800352BE0D1F831
:10396000003543F08043C1F80035D0F8103413F42B
:103970007F0F1AD1D1F8003523F00043C1F800358C
:10398000D1F8003543F00043C1F80035D1F80035D7
:1039900023F40043C1F8003500230133B3F57A7FE7
:1039A00009D811680029F8DB05E0D1F8003543F0AB
:1039B0000043C1F8003500205DF8044B704700005B
:1039C00000EB4111064AC1F81025D1F8003523F06B
:1039D000804343F00043C1F800350020704700BF2A
:1039E0000000088070B582B04C78C36B13F4807F00
:1039F00007D00B792BB912B94B79012B11D0012AC1
:103A000013D00B69E3B10D892B44013BB3FBF5F3F4
:103A10009BB2B3F5807F14D92D020D614FF48073F2
:103A20000FE02146FFF7CCFF75E000EB4413D3F81D
:103A30000C5525F06005C3F80C5500234B71E0E7E9
:103A40000123CD781DB10D8905FB03F50D610D69CD
:103A5000C5F31205374E06EAC3432B438D7A6D0733
:103A600005F0C04500EB44142B43C4F8103512B1E7
:103A7000CB68C4F8143500F58066B36813F0010F05
:103A8000D4F8003523F00053C4F80035D4F80035DD
:103A90000CBF4FF0005500252B43C4F80035D4F877
:103AA0000055254B1D601D6825F080451D60CB78B5
:103AB000C3B1214D2B6843F400432B601E4B1D689E
:103AC00045F000451D601B68C4F800351ABBCB7873
:103AD0000BBB0B69FBB1CA79032A14D8DFE802F0EB
:103AE000081E081E144D2B6823F400432B60E5E7E5
:103AF0000333C26A92B2C3F38F039A4203D283693B
:103B000043F020038361CC684A780B8A002100913E
:103B10002146FFF745FD002002B070BD0333326936
:103B200092B2C3F38F039A42EDD2836943F080636C
:103B30008361E8E70000F81F2403002070B5054604
:103B40000446FFF7E9FC10212846FFF703FD28464D
:103B5000FFF714FD00220AE004EB4211D1F8003512
:103B600023F0802343F08043C1F8003501320F2A4F
:103B7000F2D90020034600E001300F2813D804EBEF
:103B8000401606F5A061D6F8002522F4004242F066
:103B90004042C6F800250133B3F57A7FECD80A68B5
:103BA000002AF8DBE8E74FF0FF33C5F814346B6107
:103BB0002846FFF7ABFC002070BD0000002800F095
:103BC000098270B582B00446036813F0010F29D052
:103BD000A24B9B6803F00C03042B1AD09F4B9B68ED
:103BE00003F00C03082B0FD06368B3F5803F40D07F
:103BF000002B54D1994B1A6822F480321A601A684B
:103C000022F480221A6039E0944B5B6813F4800F31
:103C1000EAD0924B1B6813F4003F03D06368002B7B
:103C200000F0DA81236813F0020F75D08B4B9B688C
:103C300013F00C0F5ED0894B9B6803F00C03082B2C
:103C400053D0E368002B00F08A80844A136843F065
:103C50000103136001F0C4F80546804B1B6813F0A4
:103C6000020F73D101F0BCF8401B0228F5D90320E4
:103C7000B5E17A4A136843F48033136063682BB369
:103C800001F0AEF80546754B1B6813F4003FC9D12F
:103C900001F0A6F8401B6428F5D903209FE1B3F595
:103CA000A02F09D06D4B1A6822F480321A601A686E
:103CB00022F480221A60E1E7684B1A6842F48022FD
:103CC0001A601A6842F480321A60D7E701F088F867
:103CD0000546624B1B6813F4003FA3D001F080F847
:103CE000401B6428F5D9032079E15C4B5B6813F431
:103CF000800FA6D1594B1B6813F0020F04D0E36864
:103D0000012B01D001206AE1544A136823F0F80323
:103D1000216943EAC1031360236813F0080F46D0FA
:103D2000636983B34D4A536F43F00103536701F056
:103D300057F80546494B5B6F13F0020F37D101F07E
:103D40004FF8401B0228F5D9032048E1434A136885
:103D500023F0F803216943EAC1031360DCE73F4A1B
:103D6000136823F00103136001F03AF805463B4B5A
:103D70001B6813F0020FCFD001F032F8401B02286D
:103D8000F5D903202BE1354A536F23F00103536724
:103D900001F026F80546314B5B6F13F0020F06D099
:103DA00001F01EF8401B0228F5D9032017E1236813
:103DB00013F0040F7ED0294B1B6C13F0805F1ED1D3
:103DC000264B1A6C42F080521A641B6C03F080532D
:103DD0000193019B0125224B1B6813F4807F10D0B7
:103DE000A368012B21D0002B3CD11C4B1A6F22F071
:103DF00001021A671A6F22F004021A671AE00025FE
:103E0000E9E7174A136843F48073136000F0E8FF92
:103E10000646134B1B6813F4807FE1D100F0E0FFEE
:103E2000801B6428F5D90320D9E00C4A136F43F0B6
:103E300001031367A3685BB300F0D2FF0646074B8C
:103E40001B6F13F0020F34D100F0CAFF801B41F248
:103E500088339842F3D90320C1E000BF0038024004
:103E600000700040052B09D0604B1A6F22F0010250
:103E70001A671A6F22F004021A67DBE75B4B1A6FAE
:103E800042F004021A671A6F42F001021A67D1E782
:103E900000F0A6FF0646554B1B6F13F0020F08D02B
:103EA00000F09EFF801B41F288339842F3D9032033
:103EB00095E0FDB9A369002B00F090804B4A926811
:103EC00002F00C02082A58D0022B19D0474A136876
:103ED00023F08073136000F083FF0446434B1B689C
:103EE00013F0007F47D000F07BFF001B0228F5D9BC
:103EF000032074E03D4A136C23F080531364D9E728
:103F00003A4A136823F08073136000F069FF054696
:103F1000364B1B6813F0007F06D000F061FF401B9A
:103F20000228F5D903205AE0E369226A1343626A42
:103F300043EA8213A26A5208013A43EA0243E26A60
:103F400043EA026343F00053284A5360136843F086
:103F50008073136000F044FF0446244B1B6813F089
:103F6000007F06D100F03CFF001B0228F5D903209A
:103F700035E0002033E0002031E01C4A5268012B7C
:103F80002FD002F48003E1698B4201D0012026E0AA
:103F900002F03F03216A8B4201D001201FE0616AD9
:103FA00047F6C0731340B3EB811F01D0012016E028
:103FB00002F44031A36A5B08013BB1EB034F01D02F
:103FC00001200CE002F07062E36AB2EB036F0AD0EA
:103FD000012004E001207047012000E0002002B031
:103FE00070BD0120FBE70020F9E700BF0038024068
:103FF000264B9B6803F00C03042B44D0082B01D004
:10400000234870472DE9F04B204B5A6802F03F02DD
:104010005B6813F4800F13D01C4B5968C1F38811EF
:1040200000231C48A1FB0001FCF70AFB174B5B684F
:10403000C3F3014301335B00B0FBF3F0BDE8F08B49
:10404000124B5B68C3F388131E4600275C010025F2
:10405000E41A65EB0705A90141EA9461A001001B80
:1040600061EB0501CB0043EA5073C400A01943EB98
:1040700007018B0243EA905384022046194600232D
:10408000FCF7DEFAD2E70348704700BF0038024071
:104090000024F40040787D01002800F0A38070B572
:1040A0000446524B1B6803F00F038B420CD24F4A5D
:1040B000136823F00F030B431360136803F00F031F
:1040C0008B4201D0012070BD236813F0020F17D07E
:1040D00013F0040F04D0464A936843F4E05393600E
:1040E000236813F0080F04D0414A936843F46043F7
:1040F00093603F4A936823F0F003A0680343936002
:104100000D46236813F0010F31D06368012B20D0D6
:10411000022B25D0364A126812F0020F64D03449BF
:104120008A6822F0030213438B6000F059FE0646B2
:104130002F4B9B6803F00C036268B3EB820F16D021
:1041400000F04EFE801B41F288339842F0D90320E4
:10415000B9E7274A126812F4003FE0D10120B2E724
:10416000234A126812F0007FD9D10120ABE71F4B20
:104170001B6803F00F03AB420CD91C4A136823F0F1
:104180000F032B431360136803F00F03AB4201D0FE
:10419000012098E7236813F0040F06D0144A9368AF
:1041A00023F4E053E1680B439360236813F0080F96
:1041B00007D00F4A936823F46043216943EAC1039F
:1041C0009360FFF715FF0A4B9B68C3F30313094A7B
:1041D000D35CD840084B1860084B1868FEF71CF8F1
:1041E000002070E70120704701206CE7003C02408E
:1041F0000038024088B900086C00002068000020E8
:10420000014B1868704700BF6C00002008B5FFF72D
:10421000F7FF044B9B68C3F38223034AD35CD84067
:1042200008BD00BF0038024098B9000808B5FFF784
:10423000E7FF044B9B68C3F34233034AD35CD84087
:1042400008BD00BF0038024098B900080F23036082
:104250000B4B9A6802F0030242609A6802F0F00287
:1042600082609A6802F4E052C2609B68DB0803F443
:10427000E0530361034B1B6803F00F030B607047AF
:1042800000380240003C0240F0B583B004460368A9
:1042900013F0010F0CD0AF4B9A6822F400029A6021
:1042A0009A68416B0A439A60436BC3B1002600E0F1
:1042B0000026236813F4002F15D0A64AD2F88C30BC
:1042C00023F44013E16B0B43C2F88C30E36BB3F57E
:1042D000801F06D0002B00F01B81002504E0012682
:1042E000E7E70126F6E70025236813F4801F0FD0C7
:1042F000984AD2F88C3023F44003216C0B43C2F867
:104300008C30236CB3F5800F00F0048103B90125D4
:10431000236813F0807F00D0012613F0200F40F0B7
:10432000FB80236813F0100F0CD08A4BD3F88C203D
:1043300022F08072C3F88C20D3F88C20A16B0A4342
:10434000C3F88C20236813F4804F08D0814AD2F838
:10435000903023F44033616E0B43C2F890302368F1
:1043600013F4004F08D07B4AD2F8903023F4402356
:10437000A16E0B43C2F89030236813F4803F08D03D
:10438000744AD2F8903023F44013E16E0B43C2F824
:104390009030236813F4003F08D06E4AD2F8903072
:1043A00023F44003216F0B43C2F89030236813F0CD
:1043B000400F08D0674AD2F8903023F00303616CB5
:1043C0000B43C2F89030236813F0800F08D0614A85
:1043D000D2F8903023F00C03A16C0B43C2F890305C
:1043E000236813F4807F08D05A4AD2F8903023F023
:1043F0003003E16C0B43C2F89030236813F4007F64
:1044000008D0544AD2F8903023F0C003216D0B43FA
:10441000C2F89030236813F4806F08D04D4AD2F868
:10442000903023F44073616D0B43C2F890302368E1
:1044300013F4006F08D0474AD2F8903023F4406359
:10444000A16D0B43C2F89030236813F4805F08D04D
:10445000404AD2F8903023F44053E16D0B43C2F848
:104460009030236813F4005F08D03A4AD2F89030B5
:1044700023F44043216E0B43C2F89030236813F4B9
:10448000800F08D0334AD2F8903023F08063A16FB8
:104490000B43C2F89030236813F4001F0DD02D4A4F
:1044A000D2F8903023F00063E16F0B43C2F89030F4
:1044B000E36FB3F1006F00F09980236813F0080FE9
:1044C00000D0012513F4802F08D0224AD2F8903072
:1044D00023F04073616F0B43C2F89030236813F4EC
:1044E000000F09D01B4AD2F8903023F08053D4F843
:1044F00080100B43C2F89030002E79D12368B3F1BD
:10450000007F75D0002D40F00681002003B0F0BD83
:104510000125E9E60126F9E60E4B1A6C42F08052BD
:104520001A641B6C03F080530193019B0A4A1368C1
:1045300043F48073136000F053FC0746064B1B687E
:1045400013F4807F0AD100F04BFCC01B6428F5D91E
:104550000320DBE70038024000700040B34B1B6FC4
:1045600013F4407315D0226B02F440729A4210D0BB
:10457000AE4B1A6F22F44072196F41F48031196703
:10458000196F21F4803119671A671B6F13F0010F3F
:1045900012D1236B03F44072B2F5407F1DD0A34AC1
:1045A000936823F4F8139360A0490B6F226BC2F356
:1045B0000B0213430B67B4E600F012FC07469B4B5B
:1045C0001B6F13F0020FE4D100F00AFCC01B41F294
:1045D00088339842F3D9032098E79448826822F4FC
:1045E000F812934919400A438260DDE7012564E728
:1045F0008E4A136823F08063136000F0F1FB0646D7
:104600008A4B1B6813F0006F06D000F0E9FB801B9B
:104610006428F5D9032079E7236813F0010F13D03C
:10462000636B8BB9814AD2F88430D2F88410606809
:1046300003F4403343EA801301F070610B43A16837
:1046400043EA0173C2F88430236813F4002F03D0C7
:10465000E26BB2F5801F06D013F4801F1ED0236CCE
:10466000B3F5800F1AD1714AD2F88430D2F8841091
:10467000606803F4403343EA8013E06843EA006370
:1046800001F0E0410B43C2F88430D2F88C3023F0C3
:104690001F03616A01390B43C2F88C30236813F0A1
:1046A000807F11D0614AD2F88400D2F88410666805
:1046B00023691B0443EA861300F07060034301F092
:1046C000E0410B43C2F88430236813F0007F0DD023
:1046D000626823691B0443EA8213E26843EA0263C7
:1046E000A26843EA0273514AC2F884304F4A136801
:1046F00043F08063136000F073FB06464B4B1B686E
:1047000013F0006F7FF4FEAE00F06AFB801B64289C
:10471000F4D90320FAE6454A136823F08053136066
:1047200000F05EFB0546414B1B6813F0005F06D0AE
:1047300000F056FB401B6428F5D90320E6E6236809
:1047400013F4002F01D0E26B22B113F4801F1DD0AF
:10475000236CDBB9354AD2F88830D2F8881060690A
:1047600003F4403343EA8013A06943EA006301F095
:10477000E0410B43C2F88830D2F88C3023F4F85370
:10478000A16A013943EA0123C2F88C30236813F48B
:10479000001F03D0E36FB3F1006F31D0236813F033
:1047A000080F19D0214AD2F88810D2F888306069F1
:1047B00003F4403343EA801301F070610B43E16975
:1047C00043EA0173C2F88830D2F88C3023F44033C6
:1047D000E16A0B43C2F88C30144A136843F08053EB
:1047E000136000F0FDFA0446104B1B6813F0005FE5
:1047F00019D100F0F5FA001B6428F5D9032085E6ED
:104800000A4AD2F88800D2F888106569236A1B0426
:1048100043EA851300F07060034301F0E0410B436D
:10482000C2F88830BAE7002070E600BF00380240C6
:10483000FFFCFF0F10B4B0F5002F07D00023B0F538
:10484000801F65D018465DF8044B7047614BD3F864
:104850008C3003F44013B3F5801F2ED0B3F5001F46
:1048600054D00BB10023EAE75A4B5B6813F4800F76
:104870001BD1584B5A6802F03F02574BB3FBF2F37F
:10488000544AD2F88810C1F30361D2F88840C4F3C7
:10489000881403FB04F3B3FBF1F3D2F88C20C2F3CA
:1048A00004220132B3FBF2F3C9E74A4B5A6802F023
:1048B0003F024A4BB3FBF2F3E2E7464B5B6813F46B
:1048C000800F1BD1434B5A6802F03F02424BB3FBAF
:1048D000F2F3404AD2F88410C1F30361D2F8844065
:1048E000C4F3881403FB04F3B3FBF1F3D2F88C2078
:1048F00002F01F020132B3FBF2F3A0E7354B5A6816
:1049000002F03F02354BB3FBF2F3E2E7344B96E79C
:10491000304AD2F88C2002F44002B2F5800F2DD03C
:10492000B2F5000F53D0002A8CD12A4B5B6813F4E8
:10493000800F1BD1274B5A6802F03F02264BB3FB76
:10494000F2F3244AD2F88800C0F30360D2F888104A
:10495000C1F3881103FB01F3B3FBF0F3D2F88C0031
:10496000C0F304200130B3FBF0F36BE7194B5A6836
:1049700002F03F02194BB3FBF2F3E2E7154B5B6821
:1049800013F4800F1BD1134B5A6802F03F02124BF5
:10499000B3FBF2F30F4AD2F88400C0F30360D2F8FD
:1049A0008410C1F3881103FB01F3B3FBF0F3D2F8D9
:1049B0008C0000F01F000130B3FBF0F342E7054B21
:1049C0005A6802F03F02054BB3FBF2F3E2E7044BF7
:1049D00038E700BF003802400024F40040787D0131
:1049E0000080BB0000230F2B00F2E180F0B583B004
:1049F00039E0092200E00022B2403A4302346C4E12
:104A000046F824206B4A1468EA4302EA04064F6819
:104A100017F4803F01D045EA0406664C26606468BE
:104A200002EA04064F6817F4003F01D045EA040685
:104A3000604C6660A46802EA04064F6817F4801FA1
:104A400001D045EA04065B4CA660E46822404E684B
:104A500016F4001F01D045EA0402564CE26001330F
:104A60000F2B00F2A28001229A400C6804EA020592
:104A7000AA42F4D14C68661E112C18BF012E01D930
:104A8000122C12D186685F000324BC4026EA04067B
:104A9000CC68BC4034438460466826EA02064C6811
:104AA000C4F300129A4032434260C2685F0003269A
:104AB000BE40F64332408C68BC401443C4604A6830
:104AC000122A18BF022A13D1DC08083450F824E057
:104AD00003F007024FEA820C0F2202FA0CF22EEAD0
:104AE000020E0A6902FA0CF242EA0E0240F8242091
:104AF000026816404A6802F00302BA40324302607C
:104B00004A6812F0805FAAD02B4A546C44F4804467
:104B10005464526C02F480420192019A9C08A61CD3
:104B2000234A52F8267003F0030296000F22B24087
:104B300027EA0207214A90423FF45DAF02F5806206
:104B4000904222D002F58062904220D002F580622D
:104B500090421ED002F5806290421CD002F5806225
:104B600090421AD002F58062904218D002F580621D
:104B7000904216D002F58062904214D002F5806215
:104B800090423FF436AF0A2236E7012234E7022290
:104B900032E7032230E704222EE705222CE7062223
:104BA0002AE7072228E7082226E703B0F0BD70476E
:104BB00000380140003C0140003802400000024043
:104BC0000369194201D1002070470120704712B9D2
:104BD0000904816170478161704730B405682C68B1
:104BE00024F480242C60046863608368402B05D023
:104BF000036899600368DA6030BC704703689A60A4
:104C00000368D960F8E738B5856D90F83440012C19
:104C100031D0012480F8344090F83540E4B2012CC2
:104C200004D0002380F83430022038BD044602202E
:104C300084F83500002060652046FFF7CEFFE26D66
:104C40003F239340AB602268136843F01603136060
:104C50002268536943F080035361236C23B12268B7
:104C6000136843F0080313602268136843F00103DC
:104C700013600020D9E70220D7E7406D704700009D
:104C8000024A136843F48073136070470070004059
:104C900010B582B01B4B1A6C42F080521A641B6C28
:104CA00003F080530193019B174A136843F4803348
:104CB000136000F095F80446134B5B6813F4803FD3
:104CC00008D100F08DF8001BB0F57A7FF4D90320ED
:104CD00002B010BD0C4A136843F40033136000F0B7
:104CE0007FF80446084B5B6813F4003F07D100F0DF
:104CF00077F8001BB0F57A7FF4D90320E8E70020AD
:104D0000E6E700BF00380240007000400649CB686B
:104D100023F4E0631B041B0C000200F4E060034377
:104D2000024A1A43CA60704700ED00E00000FA052D
:104D300030B4154BDB68C3F30223C3F10704042C22
:104D400028BF04241D1D062D14D9033B4FF0FF3549
:104D500005FA04F421EA0401994005FA03F322EA72
:104D600003031943002807DB0901C9B2074B195493
:104D700030BC70470023E9E700F00F000901C9B219
:104D8000034B1954F4E700BF00ED00E000E400E03D
:104D900014ED00E0002807DB00F01F0240090123AA
:104DA0009340024A42F82030704700BF00E100E023
:104DB00008B50320FFF7AAFF0020FDF72DFAFCF746
:104DC00091FC002008BD0000034A1168034B1B78CA
:104DD0000B441360704700BFB497002065000020AB
:104DE000014B1868704700BFB497002038B50446DF
:104DF000FFF7F6FF0546B4F1FF3F02D0044B1B78E6
:104E00001C44FFF7EDFF401BA042FAD338BD00BFA2
:104E100065000020002857D010B5044690F84130B6
:104E2000002B41D0242384F841302268136823F0FA
:104E3000010313606368226823F0706313612268C2
:104E4000936823F400439360E368012B31D0A36897
:104E5000226843F404439360E368022B2FD0226856
:104E600051681A4B0B4353602268D36823F4004304
:104E7000D360236962691343A169226843EA01236D
:104E8000D360E369216A22680B43136022681368C8
:104E900043F00103136000206064202384F8413054
:104EA000206384F8420010BD80F84030FCF7B0FD6C
:104EB000B8E7A368226843F400439360CCE7236813
:104EC0004FF400625A60CAE7012070470080000278
:104ED00090F84130DBB2202B24D190F84030012BE8
:104EE00022D0012380F84030242380F8413002682A
:104EF000136823F0010313600268136823F48053DE
:104F0000136002681368194311600268136843F064
:104F100001031360202380F84130002380F84030E3
:104F200018467047022070470220704790F84130C1
:104F3000DBB2202B22D190F84030012B20D001236E
:104F400080F84030242380F841300268136823F051
:104F5000010313600268136823F4706343EA0121BC
:104F600011600268136843F001031360202380F886
:104F70004130002380F840301846704702207047C7
:104F8000022070474A4B5A6822F440325A605A68ED
:104F900041680A435A600268536823F4807353607F
:104FA00002685368016943EA012353600268536849
:104FB00023F0407353600268536881680B43536069
:104FC0000268936823F40063936002689368C16881
:104FD0000B439360826A374B9A424BD002689368C6
:104FE00023F07063936002689368816A0B43936057
:104FF0000268936823F04053936002689368C16A23
:105000000B4393600268936823F002039360026885
:105010009368816943EA4103936090F82030002B44
:1050200033D10268536823F4006353600268D36A83
:1050300023F47003D3620168CB6AC269013A43EA80
:105040000253CB620268936823F400739360026892
:10505000936890F8301043EA4123936002689368A4
:1050600023F48063936002689368416943EA812373
:10507000936070470268936823F0706393600268DE
:10508000936823F040539360BCE70268536843F48D
:10509000006353600268536823F4604353600168FF
:1050A0004B68426A013A43EA42334B60BEE700BFB5
:1050B000002301400100000F28B310B50446036C23
:1050C00043B1236C13F0100F0BD00120002384F8A0
:1050D0003C3010BDFCF726FB0023636484F83C30B1
:1050E000EFE7226C094B134043F002032364204690
:1050F000FFF748FF00206064236C23F0030343F0B4
:1051000001032364E2E70120704700BFFDEEFFFFCB
:1051100030B482B00023019390F83C30012B00F0B2
:10512000D180012380F83C300B68B3F1004F18BFE9
:10513000092B22D90568EA689BB203EB43031E3BA7
:10514000072404FA03F322EA0303EB600B685E4AC8
:1051500093420BD00568EA688C689BB203EB43036B
:105160001E3B04FA03F31343EB601BE00268D368B1
:105170008C6843EA0463D36014E005682A699BB233
:1051800003EB4303072404FA03F322EA03032B612E
:1051900005682A698C680B8803EB430304FA03F360
:1051A00013432B614B68062B28D805686A6B03EB09
:1051B0008303053B1F2404FA03F322EA03036B6312
:1051C00005686A6B4B6803EB8303053B0C8804FAA4
:1051D00003F313436B6302683C4B9A423ED0026870
:1051E0003A4B9A4244D00268384B9A4249D0002345
:1051F00080F83C30184602B030BC70470C2B16D8F3
:1052000005682A6B03EB8303233B1F2404FA03F393
:1052100022EA03032B6305682A6B4B6803EB8303C5
:10522000233B0C8804FA03F313432B63D3E705688D
:10523000EA6A03EB8303413B1F2404FA03F322EAE7
:105240000303EB620568EA6A4B6803EB8303413BA7
:105250000C8804FA03F31343EB62BCE70B68B3F169
:10526000004FBCD11A4A536823F440035360B6E799
:105270000B68122BB7D1164A536843F4800353606E
:10528000B1E70B68104A112B18BF9342AFD1104AF7
:10529000536843F4000353600A680B4B9A42A6D14B
:1052A0000C4B1B680C4AA2FB03239B0C03EB8303F0
:1052B0005A00019202E0019B013B0193019B002BEC
:1052C000F9D194E7022096E7120000100020014077
:1052D000002301406C00002083DE1B43002838D0EF
:1052E00010B50446437F1BB30223637723791BBBAE
:1052F0002368194A5A612268936823F0180393605F
:10530000637913BB23684FF0FF321A6122689368F8
:1053100023F0600361690B4393602268936823F074
:105320008003A1690B43936001236377002010BDC4
:105330000377FCF73BFAD7E7E268A168204600F064
:105340000DF80028DCD00120F1E7236822691A61FA
:10535000DCE70120704700BFB71DC10430B41F2433
:10536000651E3CB105F01F0321FA03F32C4613F030
:10537000010FF5D0182A23D8DFE802F00F222222ED
:10538000222222221E222222222222221A22222209
:10539000222222220D00062D14D8036859610168CB
:1053A0008B6823F018031A438A60002030BC7047D2
:1053B000072DF2D90120F9E70F2DEED90120F5E7ED
:1053C0000120F3E70120F1E7002848D010B504469A
:1053D00090F83530002B32D0022384F83530A369A1
:1053E0000BB100236362226811681E4B0B401360EF
:1053F00022681168636860690343E06803432069B9
:105400000343A0680343A0690343206A0343606A1F
:105410000343A06A0343E06A0343206B03430B4347
:1054200013606368102B0DD02268D36843F01E030D
:10543000D3600020E064012384F8353010BDFCF710
:10544000CBF9C9E7237F627F43EA0223A27F43EAC5
:105450000243E17F226843EA01639361E4E70120AC
:10546000704700BF07F0E0FF38B310B5044690F86E
:105470003930EBB1022384F839302268136823F401
:10548000403361680B4313602268536B23F00703BA
:10549000A1680B4353632268116C094B0B40E16810
:1054A0000B4313640020E063012384F8393010BDFE
:1054B00080F83830FCF71AFADCE70120704700BFAB
:1054C00000C0FFFF7047704770B5044603685D6811
:1054D0001E6815F0010F16D016F4807F13D01A68DD
:1054E00022F480721A60C36B43F00103C363036844
:1054F00001229A60042380F83930002380F8383084
:10550000436903B1984715F0200F18D016F4005FD7
:1055100015D02268136823F40053136023682022F7
:105520009A60E36B43F00203E363042384F83930A9
:10553000002384F8383063690BB12046984715F092
:10554000080F18D016F4006F15D02268136823F4E2
:1055500000631360236808229A60E36B43F004033E
:10556000E363042384F83930002384F83830636916
:105570000BB12046984715F0040F02D016F4806F47
:1055800020D115F0020F16D016F4007F13D0226838
:10559000136823F400731360236802229A60E36B9C
:1055A000E363012384F83930002384F83830236919
:1055B0000BB12046984715F0100F02D016F4805F0B
:1055C0000CD170BD2268136823F4806313602368D4
:1055D00004229A602046FFF775FFD2E7226813681D
:1055E00023F480531360236810229A60E36BE36313
:1055F000012384F83930002384F838302046FFF73F
:1056000062FFDEE790F83830012B59D030B4012327
:1056100080F83830022380F8393000EB0113DA6962
:105620008B1C1B01C35842EA0343093A012A1ED9C5
:105630008A1C00EB0212526843EA026341BB046811
:10564000656A204A2A4013436362026800EB011333
:105650009C699461DB69093B012B10D9012380F817
:105660003930002380F83830184630BC70478A1C27
:1056700000EB0212526802F07F421343DEE7023170
:1056800000EB01114B68026823F07F439362E5E76A
:105690000468E5690B4A2A401343E361026800EBA2
:1056A00001139C691461DB69093B012BD6D80231D7
:1056B00000EB01114B68026823F07F431362CDE7D2
:1056C00002207047F0FFFC005079137943EA002371
:1056D00007480B50D07893781B0443EA0063507856
:1056E00043EA002312781343024A8B50704700BFED
:1056F000408002404480024070B59EB0044629B10B
:105700004FF40063C3604FF480438360E369002B70
:1057100068D14FF48063079321680B68374A1A40B9
:10572000A368E06803430798034343F400731343FB
:105730000B6023681D680120FFF758FB23681D607C
:10574000236840225A6023685D680120FFF74EFB02
:1057500023685D60236800259D602368DD60226802
:10576000936923F0BE031B041B0C43F08003936179
:1057700023689E690120FFF739FB23689E61236837
:10578000DD612368DD690120FFF730FB2368DD61FF
:10579000216841F218054B59194A1A40194B134315
:1057A0004B5123685E590120FFF720FB23685E51AF
:1057B000236803F58053144A1A60236803F5805365
:1057C0001D680120FFF712FB236803F580531D605D
:1057D000A369012B09D0626900212046FFF774FFFD
:1057E0001EB070BD0023079396E7216841F21C02AA
:1057F0008858064B03438B50EDE700BF0F8120FF15
:10580000233FDEF8040020028020C1024000010096
:10581000F8B590F84430DBB2822B33D016460546FB
:10582000822380F844300268136903F01C03048A61
:10583000E402A4B223438C0104F4F8641C4344F052
:1058400001041461FFF7CCFA074614F0010F10D0E1
:10585000FFF7C6FAC01BB0F5803F02D22B681C6967
:10586000F3E7012385F84430002385F84530032011
:1058700007E02B685B699BB23360012385F84430F5
:105880000020F8BD0220FCE790F84430DBB2422B48
:1058900032D070B50546422380F844300068036971
:1058A00003F01C032C8AE402A4B223438C0104F409
:1058B000F8641C4344F0030492B242612B681C61FB
:1058C000FFF78EFA064614F0010F10D0FFF788FAA2
:1058D000801BB0F5803F02D22B681C69F3E70123DF
:1058E00085F84430002385F84530032003E0012388
:1058F00085F84430002070BD0220704770B582B03A
:1059000000230193002800F00D81044690F84430F4
:10591000002B32D0844B5A6C42F480425A645B6C48
:1059200003F480430093009B804B5A6822F40002EA
:105930005A605A68216A0A435A60236803F5805303
:105940001A6842F001021A60FFF74AFA0546236816
:1059500003F58052126812F0010F13D0FFF740FADE
:10596000401BB0F5FA7FF2D9032584F84450002398
:1059700084F84530284602B070BD80F84530FBF70A
:10598000D5FFC7E71D6925F01C05FEF739FC684BFC
:105990000344684A934256D845F0080523681D61C0
:1059A0004FF4004200212046FFF76EFF0546002815
:1059B00061D140F6FF70FFF719FA6368002B00F021
:1059C0009180FFF70DFA064601AA01212046FFF754
:1059D0001FFFFFF705FA801B41F28833984252D827
:1059E000019B13F0040FEFD04FF4805200212046AA
:1059F000FFF74AFF002852D1FFF7F2F9064601AA45
:105A000001212046FFF704FFFFF7EAF9801B41F26E
:105A1000883398424BD8019B13F0200FEFD001AA96
:105A20001F212046FFF7F4FE00284CD1019B13F004
:105A3000100F50D04FF40062E26013F0040F4DD00D
:105A40000023A3605EE03C4B03443C4A934202D8EF
:105A500045F00C05A2E73A4B03443A4A93429DD9DC
:105A6000394B0344394A934202D845F0040595E77F
:105A700045F0100592E701212046FFF73DFE012584
:105A800084F8445076E701212046FFF735FE0123D4
:105A900084F84430002384F8453003256AE7012167
:105AA0002046FFF729FE012584F8445062E70121D2
:105AB0002046FFF721FE012384F84430002384F8B8
:105AC0004530032556E701212046FFF715FE012545
:105AD00084F844504EE70022E260AEE74FF4804382
